{
  "contractName": "AccountMgmt",
  "abi": [
    {
      "anonymous": false,
      "inputs": [
        {
          "indexed": true,
          "internalType": "address",
          "name": "accountAddress",
          "type": "address"
        },
        {
          "indexed": false,
          "internalType": "uint256",
          "name": "amount",
          "type": "uint256"
        }
      ],
      "name": "Deposit",
      "type": "event"
    },
    {
      "inputs": [
        {
          "internalType": "string",
          "name": "_fName",
          "type": "string"
        },
        {
          "internalType": "string",
          "name": "_lName",
          "type": "string"
        },
        {
          "internalType": "int8",
          "name": "_age",
          "type": "int8"
        },
        {
          "internalType": "enum AccountMgmt.gender",
          "name": "_gender",
          "type": "uint8"
        },
        {
          "internalType": "string",
          "name": "_line1",
          "type": "string"
        },
        {
          "internalType": "string",
          "name": "_line2",
          "type": "string"
        },
        {
          "internalType": "string",
          "name": "_city",
          "type": "string"
        },
        {
          "internalType": "string",
          "name": "_state",
          "type": "string"
        },
        {
          "internalType": "int256",
          "name": "_pincode",
          "type": "int256"
        }
      ],
      "name": "createUser",
      "outputs": [],
      "stateMutability": "nonpayable",
      "type": "function"
    },
    {
      "inputs": [],
      "name": "balance",
      "outputs": [
        {
          "internalType": "uint256",
          "name": "",
          "type": "uint256"
        }
      ],
      "stateMutability": "view",
      "type": "function",
      "constant": true
    },
    {
      "inputs": [],
      "name": "deposit",
      "outputs": [
        {
          "internalType": "uint256",
          "name": "",
          "type": "uint256"
        }
      ],
      "stateMutability": "payable",
      "type": "function",
      "payable": true
    },
    {
      "inputs": [
        {
          "internalType": "uint256",
          "name": "Amount",
          "type": "uint256"
        }
      ],
      "name": "withdraw",
      "outputs": [
        {
          "internalType": "uint256",
          "name": "remainingBal",
          "type": "uint256"
        }
      ],
      "stateMutability": "payable",
      "type": "function",
      "payable": true
    },
    {
      "inputs": [
        {
          "internalType": "string",
          "name": "_fname",
          "type": "string"
        }
      ],
      "name": "changeFName",
      "outputs": [],
      "stateMutability": "nonpayable",
      "type": "function"
    },
    {
      "inputs": [
        {
          "internalType": "string",
          "name": "_lname",
          "type": "string"
        }
      ],
      "name": "changeLName",
      "outputs": [],
      "stateMutability": "nonpayable",
      "type": "function"
    },
    {
      "inputs": [
        {
          "internalType": "int8",
          "name": "_age",
          "type": "int8"
        }
      ],
      "name": "changeAge",
      "outputs": [],
      "stateMutability": "nonpayable",
      "type": "function"
    },
    {
      "inputs": [
        {
          "internalType": "enum AccountMgmt.gender",
          "name": "_gender",
          "type": "uint8"
        }
      ],
      "name": "changeGender",
      "outputs": [],
      "stateMutability": "nonpayable",
      "type": "function"
    },
    {
      "inputs": [
        {
          "internalType": "string",
          "name": "_line1",
          "type": "string"
        },
        {
          "internalType": "string",
          "name": "_line2",
          "type": "string"
        },
        {
          "internalType": "string",
          "name": "_city",
          "type": "string"
        },
        {
          "internalType": "string",
          "name": "_state",
          "type": "string"
        },
        {
          "internalType": "int256",
          "name": "_pincode",
          "type": "int256"
        }
      ],
      "name": "changeAddress",
      "outputs": [],
      "stateMutability": "nonpayable",
      "type": "function"
    }
  ],
  "bytecode": "0x608060405234801561001057600080fd5b506113b3806100206000396000f3fe6080604052600436106100865760003560e01c80636d32434b116100595780636d32434b146105b3578063a23bc8791461084a578063b69ef8a814610888578063d0e30db0146108b3578063dc0046f8146108d157610086565b80631e80d8431461008b5780632e1a7d4d146100c95780635730183b1461010b5780635c1c413d146101d3575b600080fd5b34801561009757600080fd5b506100c7600480360360208110156100ae57600080fd5b81019080803560000b9060200190929190505050610999565b005b6100f5600480360360208110156100df57600080fd5b8101908080359060200190929190505050610a58565b6040518082815260200191505060405180910390f35b34801561011757600080fd5b506101d16004803603602081101561012e57600080fd5b810190808035906020019064010000000081111561014b57600080fd5b82018360208201111561015d57600080fd5b8035906020019184600183028401116401000000008311171561017f57600080fd5b91908080601f016020809104026020016040519081016040528093929190818152602001838380828437600081840152601f19601f820116905080830192505050505050509192919290505050610bdb565b005b3480156101df57600080fd5b506105b160048036036101208110156101f757600080fd5b810190808035906020019064010000000081111561021457600080fd5b82018360208201111561022657600080fd5b8035906020019184600183028401116401000000008311171561024857600080fd5b91908080601f016020809104026020016040519081016040528093929190818152602001838380828437600081840152601f19601f820116905080830192505050505050509192919290803590602001906401000000008111156102ab57600080fd5b8201836020820111156102bd57600080fd5b803590602001918460018302840111640100000000831117156102df57600080fd5b91908080601f016020809104026020016040519081016040528093929190818152602001838380828437600081840152601f19601f820116905080830192505050505050509192919290803560000b9060200190929190803560ff1690602001909291908035906020019064010000000081111561035c57600080fd5b82018360208201111561036e57600080fd5b8035906020019184600183028401116401000000008311171561039057600080fd5b91908080601f016020809104026020016040519081016040528093929190818152602001838380828437600081840152601f19601f820116905080830192505050505050509192919290803590602001906401000000008111156103f357600080fd5b82018360208201111561040557600080fd5b8035906020019184600183028401116401000000008311171561042757600080fd5b91908080601f016020809104026020016040519081016040528093929190818152602001838380828437600081840152601f19601f8201169050808301925050505050505091929192908035906020019064010000000081111561048a57600080fd5b82018360208201111561049c57600080fd5b803590602001918460018302840111640100000000831117156104be57600080fd5b91908080601f016020809104026020016040519081016040528093929190818152602001838380828437600081840152601f19601f8201169050808301925050505050505091929192908035906020019064010000000081111561052157600080fd5b82018360208201111561053357600080fd5b8035906020019184600183028401116401000000008311171561055557600080fd5b91908080601f016020809104026020016040519081016040528093929190818152602001838380828437600081840152601f19601f82011690508083019250505050505050919291929080359060200190929190505050610c93565b005b3480156105bf57600080fd5b50610848600480360360a08110156105d657600080fd5b81019080803590602001906401000000008111156105f357600080fd5b82018360208201111561060557600080fd5b8035906020019184600183028401116401000000008311171561062757600080fd5b91908080601f016020809104026020016040519081016040528093929190818152602001838380828437600081840152601f19601f8201169050808301925050505050505091929192908035906020019064010000000081111561068a57600080fd5b82018360208201111561069c57600080fd5b803590602001918460018302840111640100000000831117156106be57600080fd5b91908080601f016020809104026020016040519081016040528093929190818152602001838380828437600081840152601f19601f8201169050808301925050505050505091929192908035906020019064010000000081111561072157600080fd5b82018360208201111561073357600080fd5b8035906020019184600183028401116401000000008311171561075557600080fd5b91908080601f016020809104026020016040519081016040528093929190818152602001838380828437600081840152601f19601f820116905080830192505050505050509192919290803590602001906401000000008111156107b857600080fd5b8201836020820111156107ca57600080fd5b803590602001918460018302840111640100000000831117156107ec57600080fd5b91908080601f016020809104026020016040519081016040528093929190818152602001838380828437600081840152601f19601f82011690508083019250505050505050919291929080359060200190929190505050610e79565b005b34801561085657600080fd5b506108866004803603602081101561086d57600080fd5b81019080803560ff169060200190929190505050610fce565b005b34801561089457600080fd5b5061089d611092565b6040518082815260200191505060405180910390f35b6108bb6110d9565b6040518082815260200191505060405180910390f35b3480156108dd57600080fd5b50610997600480360360208110156108f457600080fd5b810190808035906020019064010000000081111561091157600080fd5b82018360208201111561092357600080fd5b8035906020019184600183028401116401000000008311171561094557600080fd5b91908080601f016020809104026020016040519081016040528093929190818152602001838380828437600081840152601f19601f82011690508083019250505050505050919291929050505061121a565b005b600115156000803373ffffffffffffffffffffffffffffffffffffffff1673ffffffffffffffffffffffffffffffffffffffff16815260200190815260200160002060080160009054906101000a900460ff161515146109f857600080fd5b806000803373ffffffffffffffffffffffffffffffffffffffff1673ffffffffffffffffffffffffffffffffffffffff16815260200190815260200160002060020160006101000a81548160ff021916908360000b60ff16021790555050565b6000600115156000803373ffffffffffffffffffffffffffffffffffffffff1673ffffffffffffffffffffffffffffffffffffffff16815260200190815260200160002060080160009054906101000a900460ff16151514610ab957600080fd5b600160003373ffffffffffffffffffffffffffffffffffffffff1673ffffffffffffffffffffffffffffffffffffffff168152602001908152602001600020548211610b945781600160003373ffffffffffffffffffffffffffffffffffffffff1673ffffffffffffffffffffffffffffffffffffffff168152602001908152602001600020600082825403925050819055503373ffffffffffffffffffffffffffffffffffffffff166108fc839081150290604051600060405180830381858888f19350505050158015610b92573d6000803e3d6000fd5b505b600160003373ffffffffffffffffffffffffffffffffffffffff1673ffffffffffffffffffffffffffffffffffffffff168152602001908152602001600020549050919050565b600115156000803373ffffffffffffffffffffffffffffffffffffffff1673ffffffffffffffffffffffffffffffffffffffff16815260200190815260200160002060080160009054906101000a900460ff16151514610c3a57600080fd5b806000803373ffffffffffffffffffffffffffffffffffffffff1673ffffffffffffffffffffffffffffffffffffffff1681526020019081526020016000206001019080519060200190610c8f9291906112d2565b5050565b60006040518060c001604052808b81526020018a81526020018960000b8152602001886002811115610cc157fe5b81526020016040518060a00160405280898152602001888152602001878152602001868152602001858152508152602001600115158152509050806000803373ffffffffffffffffffffffffffffffffffffffff1673ffffffffffffffffffffffffffffffffffffffff1681526020019081526020016000206000820151816000019080519060200190610d569291906112d2565b506020820151816001019080519060200190610d739291906112d2565b5060408201518160020160006101000a81548160ff021916908360000b60ff16021790555060608201518160020160016101000a81548160ff02191690836002811115610dbc57fe5b02179055506080820151816003016000820151816000019080519060200190610de69291906112d2565b506020820151816001019080519060200190610e039291906112d2565b506040820151816002019080519060200190610e209291906112d2565b506060820151816003019080519060200190610e3d9291906112d2565b5060808201518160040155505060a08201518160080160006101000a81548160ff02191690831515021790555090505050505050505050505050565b600115156000803373ffffffffffffffffffffffffffffffffffffffff1673ffffffffffffffffffffffffffffffffffffffff16815260200190815260200160002060080160009054906101000a900460ff16151514610ed857600080fd5b60006040518060a00160405280878152602001868152602001858152602001848152602001838152509050806000803373ffffffffffffffffffffffffffffffffffffffff1673ffffffffffffffffffffffffffffffffffffffff1681526020019081526020016000206003016000820151816000019080519060200190610f619291906112d2565b506020820151816001019080519060200190610f7e9291906112d2565b506040820151816002019080519060200190610f9b9291906112d2565b506060820151816003019080519060200190610fb89291906112d2565b5060808201518160040155905050505050505050565b600115156000803373ffffffffffffffffffffffffffffffffffffffff1673ffffffffffffffffffffffffffffffffffffffff16815260200190815260200160002060080160009054906101000a900460ff1615151461102d57600080fd5b806000803373ffffffffffffffffffffffffffffffffffffffff1673ffffffffffffffffffffffffffffffffffffffff16815260200190815260200160002060020160016101000a81548160ff0219169083600281111561108a57fe5b021790555050565b6000600160003373ffffffffffffffffffffffffffffffffffffffff1673ffffffffffffffffffffffffffffffffffffffff16815260200190815260200160002054905090565b6000600115156000803373ffffffffffffffffffffffffffffffffffffffff1673ffffffffffffffffffffffffffffffffffffffff16815260200190815260200160002060080160009054906101000a900460ff1615151461113a57600080fd5b34600160003373ffffffffffffffffffffffffffffffffffffffff1673ffffffffffffffffffffffffffffffffffffffff168152602001908152602001600020600082825401925050819055503373ffffffffffffffffffffffffffffffffffffffff167fe1fffcc4923d04b559f4d29a8bfc6cda04eb5b0d3c460751c2402c5c5cc9109c346040518082815260200191505060405180910390a2600160003373ffffffffffffffffffffffffffffffffffffffff1673ffffffffffffffffffffffffffffffffffffffff16815260200190815260200160002054905090565b600115156000803373ffffffffffffffffffffffffffffffffffffffff1673ffffffffffffffffffffffffffffffffffffffff16815260200190815260200160002060080160009054906101000a900460ff1615151461127957600080fd5b806000803373ffffffffffffffffffffffffffffffffffffffff1673ffffffffffffffffffffffffffffffffffffffff16815260200190815260200160002060000190805190602001906112ce9291906112d2565b5050565b828054600181600116156101000203166002900490600052602060002090601f016020900481019282611308576000855561134f565b82601f1061132157805160ff191683800117855561134f565b8280016001018555821561134f579182015b8281111561134e578251825591602001919060010190611333565b5b50905061135c9190611360565b5090565b5b80821115611379576000816000905550600101611361565b509056fea2646970667358221220ddf07516f96a258e62ee54567b59c6388ba74fb70576bb9dcfb84ad431e98f8f64736f6c63430007060033",
  "immutableReferences": {},
  "source": "// SPDX-License-Identifier: MIT\npragma solidity >=0.6.0 <0.8.0;\n\ncontract AccountMgmt{\n  \n      \n    event Deposit(address indexed accountAddress, uint amount);   //event  log of deposit which has two arguments(deposit made by address and amount)\n                                                                 //Indexing can be used for filtering the events for specific values \n    \n     enum gender {          //create enum to have predefined values for gender\n         MALE,\n         FEMALE,\n         OTHER\n     }\n\n        \n    struct ActDetails {   //create struct to save account details\n    \n        string fName;\n        string lName;\n        int8 age;\n        gender Gender;\n        Address addr;\n        bool verify;        //use verify of bool type to \"verify\" if user has been added or not\n    }\n    \n      struct Address{       //create struct to store account holder adress\n    \n        string line1;\n        string line2;\n        string city;\n        string state;\n        int256 pincode;\n        \n    }\n\n\n\n\n\n    mapping(address => ActDetails)  accounts;    //mapping of struct to save user details via their address\n     mapping (address => uint)  balances;        //mapping of address to corresponding value of uint\n\n    function createUser( string memory _fName, string memory _lName, int8 _age, gender _gender, string memory _line1, string memory _line2, string memory _city, string memory _state, int256 _pincode  ) public \n    { \n        ActDetails memory acc = ActDetails(       //Initialize struct in solidity\n            {\n            \n          \n                \n                fName: _fName,\n                lName: _lName,\n                age: _age,\n                Gender: _gender,\n            addr: Address(\n                {\n                line1: _line1,\n                line2: _line2,\n                city: _city,\n                state: _state,\n                pincode: _pincode\n                    \n                }),\n            verify:true                     //user account created\n        });\n        accounts[msg.sender]=acc;           //access acc using mapping\n    }\n    \n    \n    //<--------------------------------------------------------------------------------------------------------------------------------->\n    \n    //DEPOSIT AND WITHDRAW BALANCE\n    \n    \n      function balance() public view returns (uint) {     //read and return the balance of the account\n        return balances[msg.sender];                     // read-only function, cannot modify the state\n    }\n\n    function deposit() public payable onlyadmin returns (uint) {      //function to deposit ethereum to account\n        balances[msg.sender] += msg.value;                 \n        emit Deposit(msg.sender, msg.value);                //emit the deposit event whuch takes two argument address of owner(who is sending the transaction)\n                                                            // and msg.value(amout of wei sent in the transaction)            \n        return balances[msg.sender];                                    \n    }\n\n\n \n \n       function withdraw(uint Amount) public payable onlyadmin returns (uint remainingBal) {\n        \n        if (Amount <= balances[msg.sender]) {        // Check enough balance available, otherwise just return balance\n            balances[msg.sender] -= Amount;                  //deduct the amount\n            msg.sender.transfer(Amount);                    //sending amount  from the smart contract to the sender address\n        }\n        return balances[msg.sender];                        //If enough balance is not availiable then this condition will execute \n                                                             //which just return balance\n    }\n    \n    \n    //<--------------------------------------------------------------------------------------------------------------------------------->//\n    \n    \n    //CHANGE USER details\n    \n    \n    function changeFName(string memory _fname) public onlyadmin {\n       accounts[msg.sender].fName =_fname ;\n\n       \n    }\n    \n    function changeLName(string memory _lname) public onlyadmin {\n       accounts[msg.sender].lName =_lname ;\n       \n    }\n    \n    function changeAge(int8 _age) public onlyadmin{\n       accounts[msg.sender].age =_age ;\n       \n    }\n    \n    function changeGender(gender _gender) public onlyadmin {\n       accounts[msg.sender].Gender=_gender ;\n       \n    }\n    \n    function changeAddress(string memory _line1, string memory _line2, string memory _city, string memory _state, int256  _pincode) public onlyadmin {\n      Address memory _addr = Address({\n          line1:_line1,\n               line2:_line2,\n               city:_city,\n               state:_state,\n               pincode:_pincode\n      });\n      accounts[msg.sender].addr = _addr;\n       \n    }\n        modifier onlyadmin(){\n        require(accounts[msg.sender].verify==true);\n        _;\n    }\n    \n\n}",
  "sourcePath": "/home/ishita/Documents/Account-mgmt/contracts/AccountMgmt.sol",
  "compiler": {
    "name": "solc",
    "version": "0.7.6+commit.7338295f.Emscripten.clang"
  },
  "schemaVersion": "3.3.4",
  "updatedAt": "2021-04-21T11:41:06.549Z",
  "networkType": "ethereum",
  "devdoc": {
    "kind": "dev",
    "methods": {},
    "version": 1
  },
  "userdoc": {
    "kind": "user",
    "methods": {},
    "version": 1
  }
}